:020000020000FC
:040000000C9422003A
:040010000C946800E4
:100040000C9484000FEF0DBF18E01EBF30E040E0BD
:10005000C0E0D0E040792430191202780010F0E8B6
:10006000F0936100F4E0F09361000E946100A0E071
:100070000FE104B90FEF0AB90CE007B913E018B9A2
:1000800020E000E00093C100002702E00093680038
:10009000002703E000936C0001E000936E00789469
:1000A000642FF0E0E4E5E60F74918BE088B97BB94A
:1000B000032FF0E0E4E5E00FB49187E088B9BBB925
:1000C000EFCF00E004BD05E005BD04E606BD0895E0
:1000D0000FB70F9356B150FDC1E056B150FF01C0AC
:1000E00004C0C13011F42395C0E056B151FDD1E0F8
:1000F00056B151FF01C004C0D13011F42A95D0E0AF
:1001000025B90F910FBF18950FB70F93A89AA39514
:10011000A63451F4AA2733953A3031F430E04395B0
:0E0120004A3011F430E040E00F910FBF189507
:00000001FF
